{
  "_format": "hh-sol-artifact-1",
  "contractName": "HackerBoostPunks",
  "sourceName": "contracts/HackerBoostPunks.sol",
  "abi": [
    {
      "inputs": [
        {
          "internalType": "string",
          "name": "baseURI",
          "type": "string"
        }
      ],
      "stateMutability": "nonpayable",
      "type": "constructor"
    },
    {
      "anonymous": false,
      "inputs": [
        {
          "indexed": true,
          "internalType": "address",
          "name": "owner",
          "type": "address"
        },
        {
          "indexed": true,
          "internalType": "uint256",
          "name": "tokenId",
          "type": "uint256"
        }
      ],
      "name": "Minted",
      "type": "event"
    },
    {
      "anonymous": false,
      "inputs": [
        {
          "indexed": true,
          "internalType": "address",
          "name": "from",
          "type": "address"
        },
        {
          "indexed": true,
          "internalType": "address",
          "name": "receiver",
          "type": "address"
        },
        {
          "indexed": true,
          "internalType": "uint256",
          "name": "tokenId",
          "type": "uint256"
        }
      ],
      "name": "Transferred",
      "type": "event"
    },
    {
      "inputs": [
        {
          "internalType": "address",
          "name": "_owner",
          "type": "address"
        }
      ],
      "name": "balanceOf",
      "outputs": [
        {
          "internalType": "uint256",
          "name": "",
          "type": "uint256"
        }
      ],
      "stateMutability": "view",
      "type": "function"
    },
    {
      "inputs": [],
      "name": "maxTokensIds",
      "outputs": [
        {
          "internalType": "uint256",
          "name": "",
          "type": "uint256"
        }
      ],
      "stateMutability": "view",
      "type": "function"
    },
    {
      "inputs": [],
      "name": "mint",
      "outputs": [],
      "stateMutability": "payable",
      "type": "function"
    },
    {
      "inputs": [
        {
          "internalType": "address",
          "name": "",
          "type": "address"
        },
        {
          "internalType": "uint256",
          "name": "",
          "type": "uint256"
        }
      ],
      "name": "ownedTokens",
      "outputs": [
        {
          "internalType": "uint256",
          "name": "",
          "type": "uint256"
        }
      ],
      "stateMutability": "view",
      "type": "function"
    },
    {
      "inputs": [],
      "name": "owner",
      "outputs": [
        {
          "internalType": "address",
          "name": "",
          "type": "address"
        }
      ],
      "stateMutability": "view",
      "type": "function"
    },
    {
      "inputs": [],
      "name": "paused",
      "outputs": [
        {
          "internalType": "bool",
          "name": "",
          "type": "bool"
        }
      ],
      "stateMutability": "view",
      "type": "function"
    },
    {
      "inputs": [],
      "name": "price",
      "outputs": [
        {
          "internalType": "uint256",
          "name": "",
          "type": "uint256"
        }
      ],
      "stateMutability": "view",
      "type": "function"
    },
    {
      "inputs": [],
      "name": "tokenId",
      "outputs": [
        {
          "internalType": "uint256",
          "name": "",
          "type": "uint256"
        }
      ],
      "stateMutability": "view",
      "type": "function"
    },
    {
      "inputs": [
        {
          "internalType": "address",
          "name": "_owner",
          "type": "address"
        },
        {
          "internalType": "uint256",
          "name": "index",
          "type": "uint256"
        }
      ],
      "name": "tokenOfOwnerByIndex",
      "outputs": [
        {
          "internalType": "uint256",
          "name": "",
          "type": "uint256"
        }
      ],
      "stateMutability": "view",
      "type": "function"
    },
    {
      "inputs": [
        {
          "internalType": "uint256",
          "name": "",
          "type": "uint256"
        }
      ],
      "name": "tokenOwners",
      "outputs": [
        {
          "internalType": "address",
          "name": "",
          "type": "address"
        }
      ],
      "stateMutability": "view",
      "type": "function"
    },
    {
      "inputs": [
        {
          "internalType": "uint256",
          "name": "_tokenId",
          "type": "uint256"
        }
      ],
      "name": "tokenURI",
      "outputs": [
        {
          "internalType": "string",
          "name": "",
          "type": "string"
        }
      ],
      "stateMutability": "view",
      "type": "function"
    },
    {
      "inputs": [
        {
          "internalType": "uint256",
          "name": "_tokenId",
          "type": "uint256"
        },
        {
          "internalType": "address",
          "name": "receiver",
          "type": "address"
        }
      ],
      "name": "transfer",
      "outputs": [],
      "stateMutability": "nonpayable",
      "type": "function"
    },
    {
      "inputs": [],
      "name": "withdraw",
      "outputs": [],
      "stateMutability": "nonpayable",
      "type": "function"
    }
  ],
  "bytecode": "0x6080604052600a60025566038d7ea4c6800060035534801561002057600080fd5b50604051611d1e380380611d1e8339818101604052810190610042919061020e565b33600760006101000a81548173ffffffffffffffffffffffffffffffffffffffff021916908373ffffffffffffffffffffffffffffffffffffffff16021790555080600090816100929190610478565b505061054a565b6000604051905090565b600080fd5b600080fd5b600080fd5b600080fd5b6000601f19601f8301169050919050565b7f4e487b7100000000000000000000000000000000000000000000000000000000600052604160045260246000fd5b610100826100b7565b810181811067ffffffffffffffff8211171561011f5761011e6100c8565b5b80604052505050565b6000610132610099565b905061013e82826100f7565b919050565b600067ffffffffffffffff82111561015e5761015d6100c8565b5b610167826100b7565b9050602081019050919050565b60005b83811015610192578082015181840152602081019050610177565b60008484015250505050565b60006101b16101ac84610143565b610128565b9050828152602081018484840111156101cd576101cc6100b2565b5b6101d8848285610174565b509392505050565b600082601f8301126101f5576101f46100ad565b5b815161020584826020860161019e565b91505092915050565b600060208284031215610224576102236100a3565b5b600082015167ffffffffffffffff811115610242576102416100a8565b5b61024e848285016101e0565b91505092915050565b600081519050919050565b7f4e487b7100000000000000000000000000000000000000000000000000000000600052602260045260246000fd5b600060028204905060018216806102a957607f821691505b6020821081036102bc576102bb610262565b5b50919050565b60008190508160005260206000209050919050565b60006020601f8301049050919050565b600082821b905092915050565b6000600883026103247fffffffffffffffffffffffffffffffffffffffffffffffffffffffffffffffff826102e7565b61032e86836102e7565b95508019841693508086168417925050509392505050565b6000819050919050565b6000819050919050565b600061037561037061036b84610346565b610350565b610346565b9050919050565b6000819050919050565b61038f8361035a565b6103a361039b8261037c565b8484546102f4565b825550505050565b600090565b6103b86103ab565b6103c3818484610386565b505050565b5b818110156103e7576103dc6000826103b0565b6001810190506103c9565b5050565b601f82111561042c576103fd816102c2565b610406846102d7565b81016020851015610415578190505b610429610421856102d7565b8301826103c8565b50505b505050565b600082821c905092915050565b600061044f60001984600802610431565b1980831691505092915050565b6000610468838361043e565b9150826002028217905092915050565b61048182610257565b67ffffffffffffffff81111561049a576104996100c8565b5b6104a48254610291565b6104af8282856103eb565b600060209050601f8311600181146104e257600084156104d0578287015190505b6104da858261045c565b865550610542565b601f1984166104f0866102c2565b60005b82811015610518578489015182556001820191506020850194506020810190506104f3565b868310156105355784890151610531601f89168261043e565b8355505b6001600288020188555050505b505050505050565b6117c5806105596000396000f3fe6080604052600436106100c25760003560e01c80638da5cb5b1161007f578063c3c6910b11610059578063c3c6910b14610237578063c87b56dd14610262578063e149f0361461029f578063f8a14f46146102dc576100c2565b80638da5cb5b146101b8578063a035b1fe146101e3578063b7760c8f1461020e576100c2565b80631249c58b146100c757806317d70f7c146100d15780632f745c59146100fc5780633ccfd60b146101395780635c975abb1461015057806370a082311461017b575b600080fd5b6100cf610319565b005b3480156100dd57600080fd5b506100e66104c0565b6040516100f39190610e3d565b60405180910390f35b34801561010857600080fd5b50610123600480360381019061011e9190610ee7565b6104c6565b6040516101309190610e3d565b60405180910390f35b34801561014557600080fd5b5061014e6105b0565b005b34801561015c57600080fd5b50610165610711565b6040516101729190610f42565b60405180910390f35b34801561018757600080fd5b506101a2600480360381019061019d9190610f5d565b610724565b6040516101af9190610e3d565b60405180910390f35b3480156101c457600080fd5b506101cd610770565b6040516101da9190610f99565b60405180910390f35b3480156101ef57600080fd5b506101f8610796565b6040516102059190610e3d565b60405180910390f35b34801561021a57600080fd5b5061023560048036038101906102309190610fb4565b61079c565b005b34801561024357600080fd5b5061024c610ac3565b6040516102599190610e3d565b60405180910390f35b34801561026e57600080fd5b5061028960048036038101906102849190610ff4565b610ac9565b60405161029691906110b1565b60405180910390f35b3480156102ab57600080fd5b506102c660048036038101906102c19190610ee7565b610b9f565b6040516102d39190610e3d565b60405180910390f35b3480156102e857600080fd5b5061030360048036038101906102fe9190610ff4565b610bd0565b6040516103109190610f99565b60405180910390f35b6002546001541061035f576040517f08c379a00000000000000000000000000000000000000000000000000000000081526004016103569061111f565b60405180910390fd5b6003543410156103a4576040517f08c379a000000000000000000000000000000000000000000000000000000000815260040161039b9061118b565b60405180910390fd5b600160008154809291906103b7906111da565b91905055503360056000600154815260200190815260200160002060006101000a81548173ffffffffffffffffffffffffffffffffffffffff021916908373ffffffffffffffffffffffffffffffffffffffff160217905550600660003373ffffffffffffffffffffffffffffffffffffffff1673ffffffffffffffffffffffffffffffffffffffff16815260200190815260200160002060015490806001815401808255809150506001900390600052602060002001600090919091909150556001543373ffffffffffffffffffffffffffffffffffffffff167f30385c845b448a36257a6a1716e6ad2e1bc2cbe333cde1e69fe849ad6511adfe60405160405180910390a3565b60015481565b6000600660008473ffffffffffffffffffffffffffffffffffffffff1673ffffffffffffffffffffffffffffffffffffffff16815260200190815260200160002080549050821061054c576040517f08c379a00000000000000000000000000000000000000000000000000000000081526004016105439061126e565b60405180910390fd5b600660008473ffffffffffffffffffffffffffffffffffffffff1673ffffffffffffffffffffffffffffffffffffffff168152602001908152602001600020828154811061059d5761059c61128e565b5b9060005260206000200154905092915050565b600760009054906101000a900473ffffffffffffffffffffffffffffffffffffffff1673ffffffffffffffffffffffffffffffffffffffff163373ffffffffffffffffffffffffffffffffffffffff1614610640576040517f08c379a000000000000000000000000000000000000000000000000000000000815260040161063790611309565b60405180910390fd5b6000600760009054906101000a900473ffffffffffffffffffffffffffffffffffffffff1673ffffffffffffffffffffffffffffffffffffffff16476040516106889061135a565b60006040518083038185875af1925050503d80600081146106c5576040519150601f19603f3d011682016040523d82523d6000602084013e6106ca565b606091505b505090508061070e576040517f08c379a0000000000000000000000000000000000000000000000000000000008152600401610705906113bb565b60405180910390fd5b50565b600460009054906101000a900460ff1681565b6000600660008373ffffffffffffffffffffffffffffffffffffffff1673ffffffffffffffffffffffffffffffffffffffff168152602001908152602001600020805490509050919050565b600760009054906101000a900473ffffffffffffffffffffffffffffffffffffffff1681565b60035481565b3373ffffffffffffffffffffffffffffffffffffffff166005600084815260200190815260200160002060009054906101000a900473ffffffffffffffffffffffffffffffffffffffff1673ffffffffffffffffffffffffffffffffffffffff161461083d576040517f08c379a000000000000000000000000000000000000000000000000000000000815260040161083490611427565b60405180910390fd5b600073ffffffffffffffffffffffffffffffffffffffff168173ffffffffffffffffffffffffffffffffffffffff16036108ac576040517f08c379a00000000000000000000000000000000000000000000000000000000081526004016108a390611493565b60405180910390fd5b806005600084815260200190815260200160002060006101000a81548173ffffffffffffffffffffffffffffffffffffffff021916908373ffffffffffffffffffffffffffffffffffffffff1602179055506000600660003373ffffffffffffffffffffffffffffffffffffffff1673ffffffffffffffffffffffffffffffffffffffff168152602001908152602001600020905060005b81805490508110156109fc57838282815481106109645761096361128e565b5b9060005260206000200154036109ef57816001838054905061098691906114b3565b815481106109975761099661128e565b5b90600052602060002001548282815481106109b5576109b461128e565b5b9060005260206000200181905550818054806109d4576109d36114e7565b5b600190038181906000526020600020016000905590556109fc565b8080600101915050610944565b50600660008373ffffffffffffffffffffffffffffffffffffffff1673ffffffffffffffffffffffffffffffffffffffff168152602001908152602001600020839080600181540180825580915050600190039060005260206000200160009091909190915055828273ffffffffffffffffffffffffffffffffffffffff163373ffffffffffffffffffffffffffffffffffffffff167fd1ba4ac2e2a11b5101f6cb4d978f514a155b421e8ec396d2d9abaf0bb02917ee60405160405180910390a4505050565b60025481565b6060600073ffffffffffffffffffffffffffffffffffffffff166005600084815260200190815260200160002060009054906101000a900473ffffffffffffffffffffffffffffffffffffffff1673ffffffffffffffffffffffffffffffffffffffff1603610b6d576040517f08c379a0000000000000000000000000000000000000000000000000000000008152600401610b6490611562565b60405180910390fd5b6000610b7883610c03565b604051602001610b89929190611702565b6040516020818303038152906040529050919050565b60066020528160005260406000208181548110610bbb57600080fd5b90600052602060002001600091509150505481565b60056020528060005260406000206000915054906101000a900473ffffffffffffffffffffffffffffffffffffffff1681565b606060006001610c1284610cd1565b01905060008167ffffffffffffffff811115610c3157610c30611731565b5b6040519080825280601f01601f191660200182016040528015610c635781602001600182028036833780820191505090505b509050600082602001820190505b600115610cc6578080600190039150507f3031323334353637383961626364656600000000000000000000000000000000600a86061a8153600a8581610cba57610cb9611760565b5b04945060008503610c71575b819350505050919050565b600080600090507a184f03e93ff9f4daa797ed6e38ed64bf6a1f0100000000000000008310610d2f577a184f03e93ff9f4daa797ed6e38ed64bf6a1f0100000000000000008381610d2557610d24611760565b5b0492506040810190505b6d04ee2d6d415b85acef81000000008310610d6c576d04ee2d6d415b85acef81000000008381610d6257610d61611760565b5b0492506020810190505b662386f26fc100008310610d9b57662386f26fc100008381610d9157610d90611760565b5b0492506010810190505b6305f5e1008310610dc4576305f5e1008381610dba57610db9611760565b5b0492506008810190505b6127108310610de9576127108381610ddf57610dde611760565b5b0492506004810190505b60648310610e0c5760648381610e0257610e01611760565b5b0492506002810190505b600a8310610e1b576001810190505b80915050919050565b6000819050919050565b610e3781610e24565b82525050565b6000602082019050610e526000830184610e2e565b92915050565b600080fd5b600073ffffffffffffffffffffffffffffffffffffffff82169050919050565b6000610e8882610e5d565b9050919050565b610e9881610e7d565b8114610ea357600080fd5b50565b600081359050610eb581610e8f565b92915050565b610ec481610e24565b8114610ecf57600080fd5b50565b600081359050610ee181610ebb565b92915050565b60008060408385031215610efe57610efd610e58565b5b6000610f0c85828601610ea6565b9250506020610f1d85828601610ed2565b9150509250929050565b60008115159050919050565b610f3c81610f27565b82525050565b6000602082019050610f576000830184610f33565b92915050565b600060208284031215610f7357610f72610e58565b5b6000610f8184828501610ea6565b91505092915050565b610f9381610e7d565b82525050565b6000602082019050610fae6000830184610f8a565b92915050565b60008060408385031215610fcb57610fca610e58565b5b6000610fd985828601610ed2565b9250506020610fea85828601610ea6565b9150509250929050565b60006020828403121561100a57611009610e58565b5b600061101884828501610ed2565b91505092915050565b600081519050919050565b600082825260208201905092915050565b60005b8381101561105b578082015181840152602081019050611040565b60008484015250505050565b6000601f19601f8301169050919050565b600061108382611021565b61108d818561102c565b935061109d81856020860161103d565b6110a681611067565b840191505092915050565b600060208201905081810360008301526110cb8184611078565b905092915050565b7f4d617820737570706c7920726561636865640000000000000000000000000000600082015250565b600061110960128361102c565b9150611114826110d3565b602082019050919050565b60006020820190508181036000830152611138816110fc565b9050919050565b7f496e73756666696369656e742045746865720000000000000000000000000000600082015250565b600061117560128361102c565b91506111808261113f565b602082019050919050565b600060208201905081810360008301526111a481611168565b9050919050565b7f4e487b7100000000000000000000000000000000000000000000000000000000600052601160045260246000fd5b60006111e582610e24565b91507fffffffffffffffffffffffffffffffffffffffffffffffffffffffffffffffff8203611217576112166111ab565b5b600182019050919050565b7f496e76616c696420696e64657800000000000000000000000000000000000000600082015250565b6000611258600d8361102c565b915061126382611222565b602082019050919050565b600060208201905081810360008301526112878161124b565b9050919050565b7f4e487b7100000000000000000000000000000000000000000000000000000000600052603260045260246000fd5b7f4e6f7420636f6e7472616374206f776e65720000000000000000000000000000600082015250565b60006112f360128361102c565b91506112fe826112bd565b602082019050919050565b60006020820190508181036000830152611322816112e6565b9050919050565b600081905092915050565b50565b6000611344600083611329565b915061134f82611334565b600082019050919050565b600061136582611337565b9150819050919050565b7f5769746864726177616c206661696c6564000000000000000000000000000000600082015250565b60006113a560118361102c565b91506113b08261136f565b602082019050919050565b600060208201905081810360008301526113d481611398565b9050919050565b7f4e6f742074686520746f6b656e206f776e657200000000000000000000000000600082015250565b600061141160138361102c565b915061141c826113db565b602082019050919050565b6000602082019050818103600083015261144081611404565b9050919050565b7f496e76616c696420726563697069656e74206164647265737300000000000000600082015250565b600061147d60198361102c565b915061148882611447565b602082019050919050565b600060208201905081810360008301526114ac81611470565b9050919050565b60006114be82610e24565b91506114c983610e24565b92508282039050818111156114e1576114e06111ab565b5b92915050565b7f4e487b7100000000000000000000000000000000000000000000000000000000600052603160045260246000fd5b7f546f6b656e20646f6573206e6f74206578697374000000000000000000000000600082015250565b600061154c60148361102c565b915061155782611516565b602082019050919050565b6000602082019050818103600083015261157b8161153f565b9050919050565b7f4e487b7100000000000000000000000000000000000000000000000000000000600052602260045260246000fd5b600060028204905060018216806115c957607f821691505b6020821081036115dc576115db611582565b5b50919050565b600081905092915050565b60008190508160005260206000209050919050565b6000815461160f816115b1565b61161981866115e2565b9450600182166000811461163457600181146116495761167c565b60ff198316865281151582028601935061167c565b611652856115ed565b60005b8381101561167457815481890152600182019150602081019050611655565b838801955050505b50505092915050565b600061169082611021565b61169a81856115e2565b93506116aa81856020860161103d565b80840191505092915050565b7f2e6a736f6e000000000000000000000000000000000000000000000000000000600082015250565b60006116ec6005836115e2565b91506116f7826116b6565b600582019050919050565b600061170e8285611602565b915061171a8284611685565b9150611725826116df565b91508190509392505050565b7f4e487b7100000000000000000000000000000000000000000000000000000000600052604160045260246000fd5b7f4e487b7100000000000000000000000000000000000000000000000000000000600052601260045260246000fdfea26469706673582212205d7ed46d206bc50d2730ae52253f16f5d1d57a645601fd9d2b9cc68db185b4bf64736f6c634300081c0033",
  "linkReferences": {},
  "deployedLinkReferences": {}
}